{
  "contractName": "GiveTheMoneyBack",
  "abi": [
    {
      "constant": false,
      "inputs": [],
      "name": "payDebt",
      "outputs": [
        {
          "name": "",
          "type": "bool"
        }
      ],
      "payable": true,
      "stateMutability": "payable",
      "type": "function"
    },
    {
      "constant": true,
      "inputs": [],
      "name": "description",
      "outputs": [
        {
          "name": "",
          "type": "string"
        }
      ],
      "payable": false,
      "stateMutability": "view",
      "type": "function"
    },
    {
      "constant": true,
      "inputs": [],
      "name": "owner",
      "outputs": [
        {
          "name": "",
          "type": "address"
        }
      ],
      "payable": false,
      "stateMutability": "view",
      "type": "function"
    },
    {
      "constant": true,
      "inputs": [],
      "name": "amount",
      "outputs": [
        {
          "name": "",
          "type": "uint256"
        }
      ],
      "payable": false,
      "stateMutability": "view",
      "type": "function"
    },
    {
      "constant": true,
      "inputs": [],
      "name": "nbBackers",
      "outputs": [
        {
          "name": "",
          "type": "uint256"
        }
      ],
      "payable": false,
      "stateMutability": "view",
      "type": "function"
    },
    {
      "constant": false,
      "inputs": [],
      "name": "backUp",
      "outputs": [
        {
          "name": "",
          "type": "bool"
        }
      ],
      "payable": false,
      "stateMutability": "nonpayable",
      "type": "function"
    },
    {
      "constant": true,
      "inputs": [
        {
          "name": "",
          "type": "uint256"
        }
      ],
      "name": "backers",
      "outputs": [
        {
          "name": "",
          "type": "address"
        }
      ],
      "payable": false,
      "stateMutability": "view",
      "type": "function"
    },
    {
      "constant": true,
      "inputs": [],
      "name": "receiver",
      "outputs": [
        {
          "name": "",
          "type": "address"
        }
      ],
      "payable": false,
      "stateMutability": "view",
      "type": "function"
    },
    {
      "inputs": [
        {
          "name": "receiverAddress",
          "type": "address"
        },
        {
          "name": "etherAmount",
          "type": "uint256"
        },
        {
          "name": "explanation",
          "type": "string"
        }
      ],
      "payable": false,
      "stateMutability": "nonpayable",
      "type": "constructor"
    },
    {
      "anonymous": false,
      "inputs": [
        {
          "indexed": false,
          "name": "backer",
          "type": "address"
        }
      ],
      "name": "Backed",
      "type": "event"
    },
    {
      "anonymous": false,
      "inputs": [
        {
          "indexed": false,
          "name": "amountToDistribute",
          "type": "uint256"
        }
      ],
      "name": "MoneyGivenBack",
      "type": "event"
    }
  ],
  "bytecode": "0x6060604052341561000f57600080fd5b604051610a0e380380610a0e83398101604052808051906020019091908051906020019091908051820191905050336000806101000a81548173ffffffffffffffffffffffffffffffffffffffff021916908373ffffffffffffffffffffffffffffffffffffffff16021790555082600160006101000a81548173ffffffffffffffffffffffffffffffffffffffff021916908373ffffffffffffffffffffffffffffffffffffffff160217905550670de0b6b3a7640000820260038190555080600490805190602001906100e592919061017a565b50600280548060010182816100fa91906101fa565b916000526020600020900160008060009054906101000a900473ffffffffffffffffffffffffffffffffffffffff16909190916101000a81548173ffffffffffffffffffffffffffffffffffffffff021916908373ffffffffffffffffffffffffffffffffffffffff16021790555050600160058190555050505061024b565b828054600181600116156101000203166002900490600052602060002090601f016020900481019282601f106101bb57805160ff19168380011785556101e9565b828001600101855582156101e9579182015b828111156101e85782518255916020019190600101906101cd565b5b5090506101f69190610226565b5090565b815481835581811511610221578183600052602060002091820191016102209190610226565b5b505050565b61024891905b8082111561024457600081600090555060010161022c565b5090565b90565b6107b48061025a6000396000f30060606040526004361061008e576000357c0100000000000000000000000000000000000000000000000000000000900463ffffffff16806312ee5057146100935780637284e416146100b55780638da5cb5b14610143578063aa8c217c14610198578063cf6fdb41146101c1578063dc1b97c5146101ea578063e9d8002014610217578063f7260d3e1461027a575b600080fd5b61009b6102cf565b604051808215151515815260200191505060405180910390f35b34156100c057600080fd5b6100c861042a565b6040518080602001828103825283818151815260200191508051906020019080838360005b838110156101085780820151818401526020810190506100ed565b50505050905090810190601f1680156101355780820380516001836020036101000a031916815260200191505b509250505060405180910390f35b341561014e57600080fd5b6101566104c8565b604051808273ffffffffffffffffffffffffffffffffffffffff1673ffffffffffffffffffffffffffffffffffffffff16815260200191505060405180910390f35b34156101a357600080fd5b6101ab6104ed565b6040518082815260200191505060405180910390f35b34156101cc57600080fd5b6101d46104f3565b6040518082815260200191505060405180910390f35b34156101f557600080fd5b6101fd6104f9565b604051808215151515815260200191505060405180910390f35b341561022257600080fd5b61023860048080359060200190919050506106d2565b604051808273ffffffffffffffffffffffffffffffffffffffff1673ffffffffffffffffffffffffffffffffffffffff16815260200191505060405180910390f35b341561028557600080fd5b61028d610711565b604051808273ffffffffffffffffffffffffffffffffffffffff1673ffffffffffffffffffffffffffffffffffffffff16815260200191505060405180910390f35b6000806000600160009054906101000a900473ffffffffffffffffffffffffffffffffffffffff1673ffffffffffffffffffffffffffffffffffffffff163373ffffffffffffffffffffffffffffffffffffffff1614158061033357506003543414155b156103415760009250610425565b60055460035481151561035057fe5b049150600090505b6005548110156103e95760028181548110151561037157fe5b906000526020600020900160009054906101000a900473ffffffffffffffffffffffffffffffffffffffff1673ffffffffffffffffffffffffffffffffffffffff166108fc839081150290604051600060405180830381858888f1935050505015156103dc57600080fd5b8080600101915050610358565b7f95b6f63190ff98ffca75ffe9ad1c31446d3c97482d03a4eedfadb50c3bf9a652826040518082815260200191505060405180910390a1600192505b505090565b60048054600181600116156101000203166002900480601f0160208091040260200160405190810160405280929190818152602001828054600181600116156101000203166002900480156104c05780601f10610495576101008083540402835291602001916104c0565b820191906000526020600020905b8154815290600101906020018083116104a357829003601f168201915b505050505081565b6000809054906101000a900473ffffffffffffffffffffffffffffffffffffffff1681565b60035481565b60055481565b600080600160009054906101000a900473ffffffffffffffffffffffffffffffffffffffff1673ffffffffffffffffffffffffffffffffffffffff163373ffffffffffffffffffffffffffffffffffffffff16141561055b57600091506106ce565b600090505b6002805490508110156105f15760028181548110151561057c57fe5b906000526020600020900160009054906101000a900473ffffffffffffffffffffffffffffffffffffffff1673ffffffffffffffffffffffffffffffffffffffff163373ffffffffffffffffffffffffffffffffffffffff1614156105e457600091506106ce565b8080600101915050610560565b600280548060010182816106059190610737565b9160005260206000209001600033909190916101000a81548173ffffffffffffffffffffffffffffffffffffffff021916908373ffffffffffffffffffffffffffffffffffffffff160217905550506005600081548092919060010191905055507f53ec7cc4ca718c26ef5972c57dcd3a9f748579655d7adea797f01839906456f633604051808273ffffffffffffffffffffffffffffffffffffffff1673ffffffffffffffffffffffffffffffffffffffff16815260200191505060405180910390a1600191505b5090565b6002818154811015156106e157fe5b90600052602060002090016000915054906101000a900473ffffffffffffffffffffffffffffffffffffffff1681565b600160009054906101000a900473ffffffffffffffffffffffffffffffffffffffff1681565b81548183558181151161075e5781836000526020600020918201910161075d9190610763565b5b505050565b61078591905b80821115610781576000816000905550600101610769565b5090565b905600a165627a7a723058207e512c2302a213b1de7ce901c794c72faf76148dcd3e3da33189fea787b3219d0029",
  "source": "pragma solidity ^0.4.18;\r\n\r\ncontract GiveTheMoneyBack {\r\n\r\n    address public owner; // creator of the contract\r\n    address public receiver; // person who owes money\r\n    address[] public backers; // people who back up the request\r\n    uint256 public amount; // amount of wei owed\r\n    string public description; // why the money is owed\r\n    uint256 public nbBackers; // Number of persons who backed the requets.\r\n\r\n    /* Generates a public event that notify clients when a new user backes the request */\r\n    event Backed(address backer);\r\n\r\n    /* Generates a public event that notify clients when the receiver has given the money back */\r\n    event MoneyGivenBack(uint256 amountToDistribute);\r\n\r\n    /**\r\n     * Constructor\r\n     *\r\n     * @param receiverAddress address of the one who owes ether\r\n     * @param etherAmount amount of ether owed\r\n     * @param explanation explanation of the request\r\n     */\r\n    function GiveTheMoneyBack(address receiverAddress, uint256 etherAmount, string explanation) public {\r\n        owner = msg.sender;\r\n        receiver = receiverAddress;\r\n        amount = etherAmount * 10 ** 18; // converts the ether into wei. 1 ether = 10^18 wei\r\n        description = explanation;\r\n        backers.push(owner); // add the creator of the contract as a backer\r\n        nbBackers = 1;\r\n    }\r\n\r\n    /**\r\n    * Back up the request for money\r\n    */\r\n    function backUp() public returns (bool) {\r\n        /*require(msg.sender == receiver);*/\r\n        if (msg.sender == receiver) {\r\n            return false;\r\n        }\r\n        for (uint i = 0; i < backers.length; i++) {\r\n            /*require(backers[index] != msg.sender);*/\r\n            if (msg.sender == backers[i]) {\r\n                return false;\r\n            }\r\n        }\r\n        backers.push(msg.sender);\r\n        nbBackers++;\r\n        Backed(msg.sender);\r\n        return true;\r\n    }\r\n\r\n    /**\r\n    * Allows the receiver to pay his or her debts.\r\n    */\r\n    function payDebt() public payable returns (bool) {        \r\n        if (msg.sender != receiver || msg.value != amount) {\r\n            return false;\r\n        }\r\n        uint256 amountToDistribute = amount / nbBackers;\r\n        for (uint index = 0; index < nbBackers; index++) {\r\n            backers[index].transfer(amountToDistribute);\r\n        }\r\n        MoneyGivenBack(amountToDistribute);\r\n        return true;\r\n    }\r\n    \r\n}\r\n",
  "sourcePath": "c:\\www\\dev\\tests\\gtmb-app\\contracts\\GiveTheMoneyBack.sol",
  "compiler": {
    "name": "solc",
    "version": "0.4.18+commit.9cf6e910.Emscripten.clang"
  },
  "schemaVersion": "1.0.1",
  "updatedAt": "2018-01-23T15:05:42.781Z"
}